:020000040000FA
:10000000AC2882072034203420344234493445342B
:100010004E34563445344E34493444344F3420340D
:10002000203420340034533445344C344534433484
:10003000433449344F344E344534203443344F3400
:10004000463445344534003420342034203443349D
:1000500041344634453420344E34453447345234E8
:100060004F3420342034203400342034433441349D
:1000700046344534203443344F344E3420344C34E9
:100080004534433448344534203400342034433438
:10009000413446344534203445344E3420344C34D5
:1000A0004534433448344534203420340034493412
:1000B0004E3447345234453453344534203420349C
:1000C00020344D344F344E344534443441340034BC
:1000D00020342034203444344934533450344534AB
:1000E0004E342034413447345534413420342034A4
:1000F00000342034203420344434493453345034D0
:1001000045344E342034433441344634453420346D
:1001100020340034203420344434493453345034AF
:1001200045344E3420344C3445344334483445341B
:1001300020342034003420342034523445345434B4
:100140004934523445342034433441344634453400
:100150002034203420340034831686100611861192
:10016000061485148515051683128611061186104E
:10017000F22101308C0000308D0000308E00023002
:10018000CA21B82130221330CA210230552224223C
:100190002430CA21851DEF289C21851DEF280130C0
:1001A0000C06031DDB2802308C000230552224226D
:1001B0003530CA21CA2802300C06031DE728033057
:1001C0008C000230552224224630CA21CA28013030
:1001D0008C000230552224222430CA21CA28051E50
:1001E000CA2801300C06031D1E2930222430CA21E2
:1001F00024225730CA210730282201306222851C70
:10020000FF289C21851CFF280230552224226830BB
:10021000CA218614B821B821861002305522242222
:100220007930CA218615B821861102305522242240
:100230009B30CA2106181A29BA21B52802300C06AB
:10024000031D56290230900030223530CA21242265
:100250005730CA210730282210086222851C2E2917
:100260009A21851C2E2990039C21073028221008F2
:10027000622200301006031D2E290230552224224E
:100280006830CA218614B8218610023055222422F3
:100290007930CA218615B8218611023055222422D0
:1002A0008A30CA210615B82106111529033091009C
:1002B00030224630CA2124225730CA210730282252
:1002C00011086222851C62299C21851C62299103E8
:1002D0009A21073028221108622200301106031DDE
:1002E00062290230552224228A30CA210615B821FB
:1002F000B82106110230552224227930CA218615F0
:10030000B82186111529000000000000000000003F
:10031000000008000000A430962900004030962913
:100320001F30962900000E30962905309200920B5E
:1003300097290800C830A9296430A9293230A92991
:100340001430A9290A30A9290530A9290230A92980
:1003500001309300F93092000000920BAC29930B0E
:10036000AA290800C830BD296430BD293230BD2912
:100370001430BD290A30BD29053094006430930043
:10038000F93092000000920BC229930BC029940B04
:10039000BE2908009500013095029503150801203B
:1003A000960096080319D7293522950ACE29080008
:1003B0009500013095029503970130221030170205
:1003C000031DE7299A219A210F309502DC2915088F
:1003D0000120960096080319F1293522970A950AFB
:1003E000DE290800A421831605100511851083124B
:1003F000851005110510A02130300C22A4213030C9
:100400000C228D2130300C228D2120300C22322202
:1004100030222E2220220800F039980006080F39D9
:100420009804831606089A000F3086058312180870
:1004300086000515051183161A0886008301080039
:100440000630332A8030332AC030332A8038332AAA
:10045000C038332A0830332A0E30332A0C30332A7E
:100460000130332A28300510372A05143F2299001D
:100470000C22190E0C22051CA621922108009800BE
:10048000F13C031D462AEE309800532A1808D13C4F
:10049000031D4D2AEE309800532A1808BA3C031D5C
:1004A000532ADF3098001808080010305C2A013009
:1004B0005C2A02305C2A03309B00203035229B0BE3
:1004C0005D2A08009C00F039031D6A2A203035227D
:1004D0006C2A9C001C0E6D221C080F399B00093CE5
:1004E000031C752A1B08303E772A1B08373E352A25
:02400E00F13F80
:00000001FF
